:100000000C9434000C9446000C9446000C9446006A
:100010000C9446000C9446000C9446000C94460048
:100020000C9446000C9446000C9446000C94460038
:100030000C9446000C9446000C9446000C94460028
:100040000C9446000C9446000C9446000C94460018
:100050000C9446000C9446000C9446000C94460008
:100060000C946E000C94460011241FBECFEFD8E014
:10007000DEBFCDBF21E0A0E0B1E001C01D92A53000
:10008000B207E1F70E9459000C94B0000C940000F4
:10009000809304010895809104018093BB0008952A
:1000A0006BE470E088E490E00E945C008CE10C94CA
:1000B00065000E945000FFCF9093030180930201DE
:1000C00070930101609300010895F894880F809364
:1000D000BA0085EC8093BC00789408951F920F922B
:1000E0000FB60F9211242F933F934F935F936F930B
:1000F0007F938F939F93AF93BF93EF93FF938091E1
:10010000B900887F803859F028F4811115C0109209
:10011000BC0012C0883A59F0883B49F00DC080916C
:10012000BB00E0910201F0910301099505C0E09147
:100130000001F0910101099585EC8093BC00FF91CD
:10014000EF91BF91AF919F918F917F916F915F914F
:100150004F913F912F910F900FBE0F901F901895C8
:04016000F894FFCF41
:00000001FF
