:100000000C9434000C9451000C9451000C94510049
:100010000C9451000C9451000C9451000C9451001C
:100020000C9451000C9451000C9451000C9451000C
:100030000C9451000C9451000C9451000C945100FC
:100040000C9451000C9451000C9451000C945100EC
:100050000C9451000C9451000C9451000C945100DC
:100060000C94A1000C94510011241FBECFEFD8E0D6
:10007000DEBFCDBF11E0A0E0B1E0E6E5F2E002C0F6
:1000800005900D92AA34B107D9F721E0AAE4B1E0B6
:1000900001C01D92A637B207E1F70E9488000C94B8
:1000A00029010C94000080915001882319F08A31B5
:1000B00021F008951092BB000895809175018093FE
:1000C000BB000895109250010895809150018A312B
:1000D00021F480915401809375010895909150010D
:1000E000911103C0809350010895809354010C94A2
:1000F00065000E94FE001092500142E650E063E568
:1001000070E08EE690E00E948B008CE10C949800E9
:100110000E947900FFCF90934F0180934E0170931E
:100120004D0160934C0150934B0140934A01089557
:10013000F894880F8093BA0085EC8093BC00789483
:1001400008951F920F920FB60F9211242F933F9391
:100150004F935F936F937F938F939F93AF93BF93CF
:10016000EF93FF938091B900887F803A29F180F462
:100170008823D9F0803851F580E091E00E94160183
:100180008091BB00E0914E01F0914F01099522C092
:10019000883A11F0883BD1F48FE091E00E9416017B
:1001A000E0914C01F0914D010FC081E291E00E947D
:1001B00016011092BC000EC088E291E00E94160168
:1001C000E0914A01F0914B01099504C08BE391E065
:1001D0000E94160185EC8093BC00FF91EF91BF91C6
:1001E000AF919F918F917F916F915F914F913F91CF
:1001F0002F910F900FBE0F901F9018951092C50071
:100200008CE08093C400E0ECF0E080818260808329
:1002100088E18093C10086E08093C20008959091A8
:10022000C00095FFFCCF8093C60008951F93CF9325
:10023000DF93EC0110E0FE01E10FF11D80818823C6
:1002400021F00E940F011F5FF6CFDF91CF911F9128
:060250000895F894FFCFB1
:100256005265636965766564206461746121005244
:100266006563696576656420726571756573742169
:10027600004572726F722100726563696576656406
:100286002073746F702062697421006465666175FD
:0A0296006C742063617365210000A1
:00000001FF
